{
	"data": {
		"bytecode": {
			"linkReferences": {},
			"object": "608060405234801561001057600080fd5b50610a4c806100206000396000f3fe608060405234801561001057600080fd5b50600436106100625760003560e01c80630ce121d3146100675780632e64cec114610098578063471f7cdf146100b657806370d464e1146100d45780638bab8dd5146100f0578063d80deced14610120575b600080fd5b610081600480360381019061007c919061031e565b61013c565b60405161008f9291906103f4565b60405180910390f35b6100a06101f8565b6040516100ad9190610424565b60405180910390f35b6100be610201565b6040516100cb9190610424565b60405180910390f35b6100ee60048036038101906100e991906105a0565b610207565b005b61010a600480360381019061010591906105fc565b610290565b6040516101179190610424565b60405180910390f35b61013a60048036038101906101359190610645565b6102be565b005b6001818154811061014c57600080fd5b9060005260206000209060020201600091509050806000015490806001018054610175906106a1565b80601f01602080910402602001604051908101604052809291908181526020018280546101a1906106a1565b80156101ee5780601f106101c3576101008083540402835291602001916101ee565b820191906000526020600020905b8154815290600101906020018083116101d157829003601f168201915b5050505050905082565b60008054905090565b60005481565b60016040518060400160405280838152602001848152509080600181540180825580915050600190039060005260206000209060020201600090919091909150600082015181600001556020820151816001019081610266919061087e565b5050508060028360405161027a919061098c565b9081526020016040518091039020819055505050565b6002818051602081018201805184825260208301602085012081835280955050505050506000915090505481565b6005816102cb91906109d2565b60008190555050565b6000604051905090565b600080fd5b600080fd5b6000819050919050565b6102fb816102e8565b811461030657600080fd5b50565b600081359050610318816102f2565b92915050565b600060208284031215610334576103336102de565b5b600061034284828501610309565b91505092915050565b6000819050919050565b61035e8161034b565b82525050565b600081519050919050565b600082825260208201905092915050565b60005b8381101561039e578082015181840152602081019050610383565b60008484015250505050565b6000601f19601f8301169050919050565b60006103c682610364565b6103d0818561036f565b93506103e0818560208601610380565b6103e9816103aa565b840191505092915050565b60006040820190506104096000830185610355565b818103602083015261041b81846103bb565b90509392505050565b60006020820190506104396000830184610355565b92915050565b600080fd5b600080fd5b7f4e487b7100000000000000000000000000000000000000000000000000000000600052604160045260246000fd5b610481826103aa565b810181811067ffffffffffffffff821117156104a05761049f610449565b5b80604052505050565b60006104b36102d4565b90506104bf8282610478565b919050565b600067ffffffffffffffff8211156104df576104de610449565b5b6104e8826103aa565b9050602081019050919050565b82818337600083830152505050565b6000610517610512846104c4565b6104a9565b90508281526020810184848401111561053357610532610444565b5b61053e8482856104f5565b509392505050565b600082601f83011261055b5761055a61043f565b5b813561056b848260208601610504565b91505092915050565b61057d8161034b565b811461058857600080fd5b50565b60008135905061059a81610574565b92915050565b600080604083850312156105b7576105b66102de565b5b600083013567ffffffffffffffff8111156105d5576105d46102e3565b5b6105e185828601610546565b92505060206105f28582860161058b565b9150509250929050565b600060208284031215610612576106116102de565b5b600082013567ffffffffffffffff8111156106305761062f6102e3565b5b61063c84828501610546565b91505092915050565b60006020828403121561065b5761065a6102de565b5b60006106698482850161058b565b91505092915050565b7f4e487b7100000000000000000000000000000000000000000000000000000000600052602260045260246000fd5b600060028204905060018216806106b957607f821691505b6020821081036106cc576106cb610672565b5b50919050565b60008190508160005260206000209050919050565b60006020601f8301049050919050565b600082821b905092915050565b6000600883026107347fffffffffffffffffffffffffffffffffffffffffffffffffffffffffffffffff826106f7565b61073e86836106f7565b95508019841693508086168417925050509392505050565b6000819050919050565b600061077b610776610771846102e8565b610756565b6102e8565b9050919050565b6000819050919050565b61079583610760565b6107a96107a182610782565b848454610704565b825550505050565b600090565b6107be6107b1565b6107c981848461078c565b505050565b5b818110156107ed576107e26000826107b6565b6001810190506107cf565b5050565b601f82111561083257610803816106d2565b61080c846106e7565b8101602085101561081b578190505b61082f610827856106e7565b8301826107ce565b50505b505050565b600082821c905092915050565b600061085560001984600802610837565b1980831691505092915050565b600061086e8383610844565b9150826002028217905092915050565b61088782610364565b67ffffffffffffffff8111156108a05761089f610449565b5b6108aa82546106a1565b6108b58282856107f1565b600060209050601f8311600181146108e857600084156108d6578287015190505b6108e08582610862565b865550610948565b601f1984166108f6866106d2565b60005b8281101561091e578489015182556001820191506020850194506020810190506108f9565b8683101561093b5784890151610937601f891682610844565b8355505b6001600288020188555050505b505050505050565b600081905092915050565b600061096682610364565b6109708185610950565b9350610980818560208601610380565b80840191505092915050565b6000610998828461095b565b915081905092915050565b7f4e487b7100000000000000000000000000000000000000000000000000000000600052601160045260246000fd5b60006109dd8261034b565b91506109e88361034b565b925082820190508281121560008312168382126000841215161715610a1057610a0f6109a3565b5b9291505056fea2646970667358221220ddfe8da614c386590857d6170843ba80ffbcb2fd8330697a5a314c1afe0ada3e64736f6c63430008130033",
			"opcodes": "PUSH1 0x80 PUSH1 0x40 MSTORE CALLVALUE DUP1 ISZERO PUSH2 0x10 JUMPI PUSH1 0x0 DUP1 REVERT JUMPDEST POP PUSH2 0xA4C DUP1 PUSH2 0x20 PUSH1 0x0 CODECOPY PUSH1 0x0 RETURN INVALID PUSH1 0x80 PUSH1 0x40 MSTORE CALLVALUE DUP1 ISZERO PUSH2 0x10 JUMPI PUSH1 0x0 DUP1 REVERT JUMPDEST POP PUSH1 0x4 CALLDATASIZE LT PUSH2 0x62 JUMPI PUSH1 0x0 CALLDATALOAD PUSH1 0xE0 SHR DUP1 PUSH4 0xCE121D3 EQ PUSH2 0x67 JUMPI DUP1 PUSH4 0x2E64CEC1 EQ PUSH2 0x98 JUMPI DUP1 PUSH4 0x471F7CDF EQ PUSH2 0xB6 JUMPI DUP1 PUSH4 0x70D464E1 EQ PUSH2 0xD4 JUMPI DUP1 PUSH4 0x8BAB8DD5 EQ PUSH2 0xF0 JUMPI DUP1 PUSH4 0xD80DECED EQ PUSH2 0x120 JUMPI JUMPDEST PUSH1 0x0 DUP1 REVERT JUMPDEST PUSH2 0x81 PUSH1 0x4 DUP1 CALLDATASIZE SUB DUP2 ADD SWAP1 PUSH2 0x7C SWAP2 SWAP1 PUSH2 0x31E JUMP JUMPDEST PUSH2 0x13C JUMP JUMPDEST PUSH1 0x40 MLOAD PUSH2 0x8F SWAP3 SWAP2 SWAP1 PUSH2 0x3F4 JUMP JUMPDEST PUSH1 0x40 MLOAD DUP1 SWAP2 SUB SWAP1 RETURN JUMPDEST PUSH2 0xA0 PUSH2 0x1F8 JUMP JUMPDEST PUSH1 0x40 MLOAD PUSH2 0xAD SWAP2 SWAP1 PUSH2 0x424 JUMP JUMPDEST PUSH1 0x40 MLOAD DUP1 SWAP2 SUB SWAP1 RETURN JUMPDEST PUSH2 0xBE PUSH2 0x201 JUMP JUMPDEST PUSH1 0x40 MLOAD PUSH2 0xCB SWAP2 SWAP1 PUSH2 0x424 JUMP JUMPDEST PUSH1 0x40 MLOAD DUP1 SWAP2 SUB SWAP1 RETURN JUMPDEST PUSH2 0xEE PUSH1 0x4 DUP1 CALLDATASIZE SUB DUP2 ADD SWAP1 PUSH2 0xE9 SWAP2 SWAP1 PUSH2 0x5A0 JUMP JUMPDEST PUSH2 0x207 JUMP JUMPDEST STOP JUMPDEST PUSH2 0x10A PUSH1 0x4 DUP1 CALLDATASIZE SUB DUP2 ADD SWAP1 PUSH2 0x105 SWAP2 SWAP1 PUSH2 0x5FC JUMP JUMPDEST PUSH2 0x290 JUMP JUMPDEST PUSH1 0x40 MLOAD PUSH2 0x117 SWAP2 SWAP1 PUSH2 0x424 JUMP JUMPDEST PUSH1 0x40 MLOAD DUP1 SWAP2 SUB SWAP1 RETURN JUMPDEST PUSH2 0x13A PUSH1 0x4 DUP1 CALLDATASIZE SUB DUP2 ADD SWAP1 PUSH2 0x135 SWAP2 SWAP1 PUSH2 0x645 JUMP JUMPDEST PUSH2 0x2BE JUMP JUMPDEST STOP JUMPDEST PUSH1 0x1 DUP2 DUP2 SLOAD DUP2 LT PUSH2 0x14C JUMPI PUSH1 0x0 DUP1 REVERT JUMPDEST SWAP1 PUSH1 0x0 MSTORE PUSH1 0x20 PUSH1 0x0 KECCAK256 SWAP1 PUSH1 0x2 MUL ADD PUSH1 0x0 SWAP2 POP SWAP1 POP DUP1 PUSH1 0x0 ADD SLOAD SWAP1 DUP1 PUSH1 0x1 ADD DUP1 SLOAD PUSH2 0x175 SWAP1 PUSH2 0x6A1 JUMP JUMPDEST DUP1 PUSH1 0x1F ADD PUSH1 0x20 DUP1 SWAP2 DIV MUL PUSH1 0x20 ADD PUSH1 0x40 MLOAD SWAP1 DUP2 ADD PUSH1 0x40 MSTORE DUP1 SWAP3 SWAP2 SWAP1 DUP2 DUP2 MSTORE PUSH1 0x20 ADD DUP3 DUP1 SLOAD PUSH2 0x1A1 SWAP1 PUSH2 0x6A1 JUMP JUMPDEST DUP1 ISZERO PUSH2 0x1EE JUMPI DUP1 PUSH1 0x1F LT PUSH2 0x1C3 JUMPI PUSH2 0x100 DUP1 DUP4 SLOAD DIV MUL DUP4 MSTORE SWAP2 PUSH1 0x20 ADD SWAP2 PUSH2 0x1EE JUMP JUMPDEST DUP3 ADD SWAP2 SWAP1 PUSH1 0x0 MSTORE PUSH1 0x20 PUSH1 0x0 KECCAK256 SWAP1 JUMPDEST DUP2 SLOAD DUP2 MSTORE SWAP1 PUSH1 0x1 ADD SWAP1 PUSH1 0x20 ADD DUP1 DUP4 GT PUSH2 0x1D1 JUMPI DUP3 SWAP1 SUB PUSH1 0x1F AND DUP3 ADD SWAP2 JUMPDEST POP POP POP POP POP SWAP1 POP DUP3 JUMP JUMPDEST PUSH1 0x0 DUP1 SLOAD SWAP1 POP SWAP1 JUMP JUMPDEST PUSH1 0x0 SLOAD DUP2 JUMP JUMPDEST PUSH1 0x1 PUSH1 0x40 MLOAD DUP1 PUSH1 0x40 ADD PUSH1 0x40 MSTORE DUP1 DUP4 DUP2 MSTORE PUSH1 0x20 ADD DUP5 DUP2 MSTORE POP SWAP1 DUP1 PUSH1 0x1 DUP2 SLOAD ADD DUP1 DUP3 SSTORE DUP1 SWAP2 POP POP PUSH1 0x1 SWAP1 SUB SWAP1 PUSH1 0x0 MSTORE PUSH1 0x20 PUSH1 0x0 KECCAK256 SWAP1 PUSH1 0x2 MUL ADD PUSH1 0x0 SWAP1 SWAP2 SWAP1 SWAP2 SWAP1 SWAP2 POP PUSH1 0x0 DUP3 ADD MLOAD DUP2 PUSH1 0x0 ADD SSTORE PUSH1 0x20 DUP3 ADD MLOAD DUP2 PUSH1 0x1 ADD SWAP1 DUP2 PUSH2 0x266 SWAP2 SWAP1 PUSH2 0x87E JUMP JUMPDEST POP POP POP DUP1 PUSH1 0x2 DUP4 PUSH1 0x40 MLOAD PUSH2 0x27A SWAP2 SWAP1 PUSH2 0x98C JUMP JUMPDEST SWAP1 DUP2 MSTORE PUSH1 0x20 ADD PUSH1 0x40 MLOAD DUP1 SWAP2 SUB SWAP1 KECCAK256 DUP2 SWAP1 SSTORE POP POP POP JUMP JUMPDEST PUSH1 0x2 DUP2 DUP1 MLOAD PUSH1 0x20 DUP2 ADD DUP3 ADD DUP1 MLOAD DUP5 DUP3 MSTORE PUSH1 0x20 DUP4 ADD PUSH1 0x20 DUP6 ADD KECCAK256 DUP2 DUP4 MSTORE DUP1 SWAP6 POP POP POP POP POP POP PUSH1 0x0 SWAP2 POP SWAP1 POP SLOAD DUP2 JUMP JUMPDEST PUSH1 0x5 DUP2 PUSH2 0x2CB SWAP2 SWAP1 PUSH2 0x9D2 JUMP JUMPDEST PUSH1 0x0 DUP2 SWAP1 SSTORE POP POP JUMP JUMPDEST PUSH1 0x0 PUSH1 0x40 MLOAD SWAP1 POP SWAP1 JUMP JUMPDEST PUSH1 0x0 DUP1 REVERT JUMPDEST PUSH1 0x0 DUP1 REVERT JUMPDEST PUSH1 0x0 DUP2 SWAP1 POP SWAP2 SWAP1 POP JUMP JUMPDEST PUSH2 0x2FB DUP2 PUSH2 0x2E8 JUMP JUMPDEST DUP2 EQ PUSH2 0x306 JUMPI PUSH1 0x0 DUP1 REVERT JUMPDEST POP JUMP JUMPDEST PUSH1 0x0 DUP2 CALLDATALOAD SWAP1 POP PUSH2 0x318 DUP2 PUSH2 0x2F2 JUMP JUMPDEST SWAP3 SWAP2 POP POP JUMP JUMPDEST PUSH1 0x0 PUSH1 0x20 DUP3 DUP5 SUB SLT ISZERO PUSH2 0x334 JUMPI PUSH2 0x333 PUSH2 0x2DE JUMP JUMPDEST JUMPDEST PUSH1 0x0 PUSH2 0x342 DUP5 DUP3 DUP6 ADD PUSH2 0x309 JUMP JUMPDEST SWAP2 POP POP SWAP3 SWAP2 POP POP JUMP JUMPDEST PUSH1 0x0 DUP2 SWAP1 POP SWAP2 SWAP1 POP JUMP JUMPDEST PUSH2 0x35E DUP2 PUSH2 0x34B JUMP JUMPDEST DUP3 MSTORE POP POP JUMP JUMPDEST PUSH1 0x0 DUP2 MLOAD SWAP1 POP SWAP2 SWAP1 POP JUMP JUMPDEST PUSH1 0x0 DUP3 DUP3 MSTORE PUSH1 0x20 DUP3 ADD SWAP1 POP SWAP3 SWAP2 POP POP JUMP JUMPDEST PUSH1 0x0 JUMPDEST DUP4 DUP2 LT ISZERO PUSH2 0x39E JUMPI DUP1 DUP3 ADD MLOAD DUP2 DUP5 ADD MSTORE PUSH1 0x20 DUP2 ADD SWAP1 POP PUSH2 0x383 JUMP JUMPDEST PUSH1 0x0 DUP5 DUP5 ADD MSTORE POP POP POP POP JUMP JUMPDEST PUSH1 0x0 PUSH1 0x1F NOT PUSH1 0x1F DUP4 ADD AND SWAP1 POP SWAP2 SWAP1 POP JUMP JUMPDEST PUSH1 0x0 PUSH2 0x3C6 DUP3 PUSH2 0x364 JUMP JUMPDEST PUSH2 0x3D0 DUP2 DUP6 PUSH2 0x36F JUMP JUMPDEST SWAP4 POP PUSH2 0x3E0 DUP2 DUP6 PUSH1 0x20 DUP7 ADD PUSH2 0x380 JUMP JUMPDEST PUSH2 0x3E9 DUP2 PUSH2 0x3AA JUMP JUMPDEST DUP5 ADD SWAP2 POP POP SWAP3 SWAP2 POP POP JUMP JUMPDEST PUSH1 0x0 PUSH1 0x40 DUP3 ADD SWAP1 POP PUSH2 0x409 PUSH1 0x0 DUP4 ADD DUP6 PUSH2 0x355 JUMP JUMPDEST DUP2 DUP2 SUB PUSH1 0x20 DUP4 ADD MSTORE PUSH2 0x41B DUP2 DUP5 PUSH2 0x3BB JUMP JUMPDEST SWAP1 POP SWAP4 SWAP3 POP POP POP JUMP JUMPDEST PUSH1 0x0 PUSH1 0x20 DUP3 ADD SWAP1 POP PUSH2 0x439 PUSH1 0x0 DUP4 ADD DUP5 PUSH2 0x355 JUMP JUMPDEST SWAP3 SWAP2 POP POP JUMP JUMPDEST PUSH1 0x0 DUP1 REVERT JUMPDEST PUSH1 0x0 DUP1 REVERT JUMPDEST PUSH32 0x4E487B7100000000000000000000000000000000000000000000000000000000 PUSH1 0x0 MSTORE PUSH1 0x41 PUSH1 0x4 MSTORE PUSH1 0x24 PUSH1 0x0 REVERT JUMPDEST PUSH2 0x481 DUP3 PUSH2 0x3AA JUMP JUMPDEST DUP2 ADD DUP2 DUP2 LT PUSH8 0xFFFFFFFFFFFFFFFF DUP3 GT OR ISZERO PUSH2 0x4A0 JUMPI PUSH2 0x49F PUSH2 0x449 JUMP JUMPDEST JUMPDEST DUP1 PUSH1 0x40 MSTORE POP POP POP JUMP JUMPDEST PUSH1 0x0 PUSH2 0x4B3 PUSH2 0x2D4 JUMP JUMPDEST SWAP1 POP PUSH2 0x4BF DUP3 DUP3 PUSH2 0x478 JUMP JUMPDEST SWAP2 SWAP1 POP JUMP JUMPDEST PUSH1 0x0 PUSH8 0xFFFFFFFFFFFFFFFF DUP3 GT ISZERO PUSH2 0x4DF JUMPI PUSH2 0x4DE PUSH2 0x449 JUMP JUMPDEST JUMPDEST PUSH2 0x4E8 DUP3 PUSH2 0x3AA JUMP JUMPDEST SWAP1 POP PUSH1 0x20 DUP2 ADD SWAP1 POP SWAP2 SWAP1 POP JUMP JUMPDEST DUP3 DUP2 DUP4 CALLDATACOPY PUSH1 0x0 DUP4 DUP4 ADD MSTORE POP POP POP JUMP JUMPDEST PUSH1 0x0 PUSH2 0x517 PUSH2 0x512 DUP5 PUSH2 0x4C4 JUMP JUMPDEST PUSH2 0x4A9 JUMP JUMPDEST SWAP1 POP DUP3 DUP2 MSTORE PUSH1 0x20 DUP2 ADD DUP5 DUP5 DUP5 ADD GT ISZERO PUSH2 0x533 JUMPI PUSH2 0x532 PUSH2 0x444 JUMP JUMPDEST JUMPDEST PUSH2 0x53E DUP5 DUP3 DUP6 PUSH2 0x4F5 JUMP JUMPDEST POP SWAP4 SWAP3 POP POP POP JUMP JUMPDEST PUSH1 0x0 DUP3 PUSH1 0x1F DUP4 ADD SLT PUSH2 0x55B JUMPI PUSH2 0x55A PUSH2 0x43F JUMP JUMPDEST JUMPDEST DUP2 CALLDATALOAD PUSH2 0x56B DUP5 DUP3 PUSH1 0x20 DUP7 ADD PUSH2 0x504 JUMP JUMPDEST SWAP2 POP POP SWAP3 SWAP2 POP POP JUMP JUMPDEST PUSH2 0x57D DUP2 PUSH2 0x34B JUMP JUMPDEST DUP2 EQ PUSH2 0x588 JUMPI PUSH1 0x0 DUP1 REVERT JUMPDEST POP JUMP JUMPDEST PUSH1 0x0 DUP2 CALLDATALOAD SWAP1 POP PUSH2 0x59A DUP2 PUSH2 0x574 JUMP JUMPDEST SWAP3 SWAP2 POP POP JUMP JUMPDEST PUSH1 0x0 DUP1 PUSH1 0x40 DUP4 DUP6 SUB SLT ISZERO PUSH2 0x5B7 JUMPI PUSH2 0x5B6 PUSH2 0x2DE JUMP JUMPDEST JUMPDEST PUSH1 0x0 DUP4 ADD CALLDATALOAD PUSH8 0xFFFFFFFFFFFFFFFF DUP2 GT ISZERO PUSH2 0x5D5 JUMPI PUSH2 0x5D4 PUSH2 0x2E3 JUMP JUMPDEST JUMPDEST PUSH2 0x5E1 DUP6 DUP3 DUP7 ADD PUSH2 0x546 JUMP JUMPDEST SWAP3 POP POP PUSH1 0x20 PUSH2 0x5F2 DUP6 DUP3 DUP7 ADD PUSH2 0x58B JUMP JUMPDEST SWAP2 POP POP SWAP3 POP SWAP3 SWAP1 POP JUMP JUMPDEST PUSH1 0x0 PUSH1 0x20 DUP3 DUP5 SUB SLT ISZERO PUSH2 0x612 JUMPI PUSH2 0x611 PUSH2 0x2DE JUMP JUMPDEST JUMPDEST PUSH1 0x0 DUP3 ADD CALLDATALOAD PUSH8 0xFFFFFFFFFFFFFFFF DUP2 GT ISZERO PUSH2 0x630 JUMPI PUSH2 0x62F PUSH2 0x2E3 JUMP JUMPDEST JUMPDEST PUSH2 0x63C DUP5 DUP3 DUP6 ADD PUSH2 0x546 JUMP JUMPDEST SWAP2 POP POP SWAP3 SWAP2 POP POP JUMP JUMPDEST PUSH1 0x0 PUSH1 0x20 DUP3 DUP5 SUB SLT ISZERO PUSH2 0x65B JUMPI PUSH2 0x65A PUSH2 0x2DE JUMP JUMPDEST JUMPDEST PUSH1 0x0 PUSH2 0x669 DUP5 DUP3 DUP6 ADD PUSH2 0x58B JUMP JUMPDEST SWAP2 POP POP SWAP3 SWAP2 POP POP JUMP JUMPDEST PUSH32 0x4E487B7100000000000000000000000000000000000000000000000000000000 PUSH1 0x0 MSTORE PUSH1 0x22 PUSH1 0x4 MSTORE PUSH1 0x24 PUSH1 0x0 REVERT JUMPDEST PUSH1 0x0 PUSH1 0x2 DUP3 DIV SWAP1 POP PUSH1 0x1 DUP3 AND DUP1 PUSH2 0x6B9 JUMPI PUSH1 0x7F DUP3 AND SWAP2 POP JUMPDEST PUSH1 0x20 DUP3 LT DUP2 SUB PUSH2 0x6CC JUMPI PUSH2 0x6CB PUSH2 0x672 JUMP JUMPDEST JUMPDEST POP SWAP2 SWAP1 POP JUMP JUMPDEST PUSH1 0x0 DUP2 SWAP1 POP DUP2 PUSH1 0x0 MSTORE PUSH1 0x20 PUSH1 0x0 KECCAK256 SWAP1 POP SWAP2 SWAP1 POP JUMP JUMPDEST PUSH1 0x0 PUSH1 0x20 PUSH1 0x1F DUP4 ADD DIV SWAP1 POP SWAP2 SWAP1 POP JUMP JUMPDEST PUSH1 0x0 DUP3 DUP3 SHL SWAP1 POP SWAP3 SWAP2 POP POP JUMP JUMPDEST PUSH1 0x0 PUSH1 0x8 DUP4 MUL PUSH2 0x734 PUSH32 0xFFFFFFFFFFFFFFFFFFFFFFFFFFFFFFFFFFFFFFFFFFFFFFFFFFFFFFFFFFFFFFFF DUP3 PUSH2 0x6F7 JUMP JUMPDEST PUSH2 0x73E DUP7 DUP4 PUSH2 0x6F7 JUMP JUMPDEST SWAP6 POP DUP1 NOT DUP5 AND SWAP4 POP DUP1 DUP7 AND DUP5 OR SWAP3 POP POP POP SWAP4 SWAP3 POP POP POP JUMP JUMPDEST PUSH1 0x0 DUP2 SWAP1 POP SWAP2 SWAP1 POP JUMP JUMPDEST PUSH1 0x0 PUSH2 0x77B PUSH2 0x776 PUSH2 0x771 DUP5 PUSH2 0x2E8 JUMP JUMPDEST PUSH2 0x756 JUMP JUMPDEST PUSH2 0x2E8 JUMP JUMPDEST SWAP1 POP SWAP2 SWAP1 POP JUMP JUMPDEST PUSH1 0x0 DUP2 SWAP1 POP SWAP2 SWAP1 POP JUMP JUMPDEST PUSH2 0x795 DUP4 PUSH2 0x760 JUMP JUMPDEST PUSH2 0x7A9 PUSH2 0x7A1 DUP3 PUSH2 0x782 JUMP JUMPDEST DUP5 DUP5 SLOAD PUSH2 0x704 JUMP JUMPDEST DUP3 SSTORE POP POP POP POP JUMP JUMPDEST PUSH1 0x0 SWAP1 JUMP JUMPDEST PUSH2 0x7BE PUSH2 0x7B1 JUMP JUMPDEST PUSH2 0x7C9 DUP2 DUP5 DUP5 PUSH2 0x78C JUMP JUMPDEST POP POP POP JUMP JUMPDEST JUMPDEST DUP2 DUP2 LT ISZERO PUSH2 0x7ED JUMPI PUSH2 0x7E2 PUSH1 0x0 DUP3 PUSH2 0x7B6 JUMP JUMPDEST PUSH1 0x1 DUP2 ADD SWAP1 POP PUSH2 0x7CF JUMP JUMPDEST POP POP JUMP JUMPDEST PUSH1 0x1F DUP3 GT ISZERO PUSH2 0x832 JUMPI PUSH2 0x803 DUP2 PUSH2 0x6D2 JUMP JUMPDEST PUSH2 0x80C DUP5 PUSH2 0x6E7 JUMP JUMPDEST DUP2 ADD PUSH1 0x20 DUP6 LT ISZERO PUSH2 0x81B JUMPI DUP2 SWAP1 POP JUMPDEST PUSH2 0x82F PUSH2 0x827 DUP6 PUSH2 0x6E7 JUMP JUMPDEST DUP4 ADD DUP3 PUSH2 0x7CE JUMP JUMPDEST POP POP JUMPDEST POP POP POP JUMP JUMPDEST PUSH1 0x0 DUP3 DUP3 SHR SWAP1 POP SWAP3 SWAP2 POP POP JUMP JUMPDEST PUSH1 0x0 PUSH2 0x855 PUSH1 0x0 NOT DUP5 PUSH1 0x8 MUL PUSH2 0x837 JUMP JUMPDEST NOT DUP1 DUP4 AND SWAP2 POP POP SWAP3 SWAP2 POP POP JUMP JUMPDEST PUSH1 0x0 PUSH2 0x86E DUP4 DUP4 PUSH2 0x844 JUMP JUMPDEST SWAP2 POP DUP3 PUSH1 0x2 MUL DUP3 OR SWAP1 POP SWAP3 SWAP2 POP POP JUMP JUMPDEST PUSH2 0x887 DUP3 PUSH2 0x364 JUMP JUMPDEST PUSH8 0xFFFFFFFFFFFFFFFF DUP2 GT ISZERO PUSH2 0x8A0 JUMPI PUSH2 0x89F PUSH2 0x449 JUMP JUMPDEST JUMPDEST PUSH2 0x8AA DUP3 SLOAD PUSH2 0x6A1 JUMP JUMPDEST PUSH2 0x8B5 DUP3 DUP3 DUP6 PUSH2 0x7F1 JUMP JUMPDEST PUSH1 0x0 PUSH1 0x20 SWAP1 POP PUSH1 0x1F DUP4 GT PUSH1 0x1 DUP2 EQ PUSH2 0x8E8 JUMPI PUSH1 0x0 DUP5 ISZERO PUSH2 0x8D6 JUMPI DUP3 DUP8 ADD MLOAD SWAP1 POP JUMPDEST PUSH2 0x8E0 DUP6 DUP3 PUSH2 0x862 JUMP JUMPDEST DUP7 SSTORE POP PUSH2 0x948 JUMP JUMPDEST PUSH1 0x1F NOT DUP5 AND PUSH2 0x8F6 DUP7 PUSH2 0x6D2 JUMP JUMPDEST PUSH1 0x0 JUMPDEST DUP3 DUP2 LT ISZERO PUSH2 0x91E JUMPI DUP5 DUP10 ADD MLOAD DUP3 SSTORE PUSH1 0x1 DUP3 ADD SWAP2 POP PUSH1 0x20 DUP6 ADD SWAP5 POP PUSH1 0x20 DUP2 ADD SWAP1 POP PUSH2 0x8F9 JUMP JUMPDEST DUP7 DUP4 LT ISZERO PUSH2 0x93B JUMPI DUP5 DUP10 ADD MLOAD PUSH2 0x937 PUSH1 0x1F DUP10 AND DUP3 PUSH2 0x844 JUMP JUMPDEST DUP4 SSTORE POP JUMPDEST PUSH1 0x1 PUSH1 0x2 DUP9 MUL ADD DUP9 SSTORE POP POP POP JUMPDEST POP POP POP POP POP POP JUMP JUMPDEST PUSH1 0x0 DUP2 SWAP1 POP SWAP3 SWAP2 POP POP JUMP JUMPDEST PUSH1 0x0 PUSH2 0x966 DUP3 PUSH2 0x364 JUMP JUMPDEST PUSH2 0x970 DUP2 DUP6 PUSH2 0x950 JUMP JUMPDEST SWAP4 POP PUSH2 0x980 DUP2 DUP6 PUSH1 0x20 DUP7 ADD PUSH2 0x380 JUMP JUMPDEST DUP1 DUP5 ADD SWAP2 POP POP SWAP3 SWAP2 POP POP JUMP JUMPDEST PUSH1 0x0 PUSH2 0x998 DUP3 DUP5 PUSH2 0x95B JUMP JUMPDEST SWAP2 POP DUP2 SWAP1 POP SWAP3 SWAP2 POP POP JUMP JUMPDEST PUSH32 0x4E487B7100000000000000000000000000000000000000000000000000000000 PUSH1 0x0 MSTORE PUSH1 0x11 PUSH1 0x4 MSTORE PUSH1 0x24 PUSH1 0x0 REVERT JUMPDEST PUSH1 0x0 PUSH2 0x9DD DUP3 PUSH2 0x34B JUMP JUMPDEST SWAP2 POP PUSH2 0x9E8 DUP4 PUSH2 0x34B JUMP JUMPDEST SWAP3 POP DUP3 DUP3 ADD SWAP1 POP DUP3 DUP2 SLT ISZERO PUSH1 0x0 DUP4 SLT AND DUP4 DUP3 SLT PUSH1 0x0 DUP5 SLT ISZERO AND OR ISZERO PUSH2 0xA10 JUMPI PUSH2 0xA0F PUSH2 0x9A3 JUMP JUMPDEST JUMPDEST SWAP3 SWAP2 POP POP JUMP INVALID LOG2 PUSH5 0x6970667358 0x22 SLT KECCAK256 0xDD INVALID DUP14 0xA6 EQ 0xC3 DUP7 MSIZE ADDMOD JUMPI 0xD6 OR ADDMOD NUMBER 0xBA DUP1 SELFDESTRUCT 0xBC 0xB2 REVERT DUP4 ADDRESS PUSH10 0x7A5A314C1AFE0ADA3E64 PUSH20 0x6F6C634300081300330000000000000000000000 "
		},
		"gasEstimates": {
			"creation": {
				"codeDepositCost": "527200",
				"executionCost": "562",
				"totalCost": "527762"
			},
			"external": {
				"addPerson(string,int256)": "infinite",
				"favoriteNumber()": "2451",
				"listOfPerson(uint256)": "infinite",
				"nameToFavoriteNumber(string)": "infinite",
				"retrieve()": "2437",
				"store(int256)": "infinite"
			}
		},
		"methodIdentifiers": {
			"addPerson(string,int256)": "70d464e1",
			"favoriteNumber()": "471f7cdf",
			"listOfPerson(uint256)": "0ce121d3",
			"nameToFavoriteNumber(string)": "8bab8dd5",
			"retrieve()": "2e64cec1",
			"store(int256)": "d80deced"
		}
	},
	"abi": [
		{
			"inputs": [
				{
					"internalType": "string",
					"name": "_name",
					"type": "string"
				},
				{
					"internalType": "int256",
					"name": "_favoriteNumber",
					"type": "int256"
				}
			],
			"name": "addPerson",
			"outputs": [],
			"stateMutability": "nonpayable",
			"type": "function"
		},
		{
			"inputs": [],
			"name": "favoriteNumber",
			"outputs": [
				{
					"internalType": "int256",
					"name": "",
					"type": "int256"
				}
			],
			"stateMutability": "view",
			"type": "function"
		},
		{
			"inputs": [
				{
					"internalType": "uint256",
					"name": "",
					"type": "uint256"
				}
			],
			"name": "listOfPerson",
			"outputs": [
				{
					"internalType": "int256",
					"name": "favoriteNumber",
					"type": "int256"
				},
				{
					"internalType": "string",
					"name": "name",
					"type": "string"
				}
			],
			"stateMutability": "view",
			"type": "function"
		},
		{
			"inputs": [
				{
					"internalType": "string",
					"name": "",
					"type": "string"
				}
			],
			"name": "nameToFavoriteNumber",
			"outputs": [
				{
					"internalType": "int256",
					"name": "",
					"type": "int256"
				}
			],
			"stateMutability": "view",
			"type": "function"
		},
		{
			"inputs": [],
			"name": "retrieve",
			"outputs": [
				{
					"internalType": "int256",
					"name": "",
					"type": "int256"
				}
			],
			"stateMutability": "view",
			"type": "function"
		},
		{
			"inputs": [
				{
					"internalType": "int256",
					"name": "_favoriteNumber",
					"type": "int256"
				}
			],
			"name": "store",
			"outputs": [],
			"stateMutability": "nonpayable",
			"type": "function"
		}
	]
}